:1000000001308A001929000024308400831300087D
:10001000031918280130F800F701F70B0D28F80B29
:100020000C284A30F700F70B13281628800B0A28F3
:100030000800831606148312061C2E2883168614C5
:10004000831286182E28831606158312061D2E2865
:1000500083168801113083128800962883160614AF
:100060008312061C4328831686148312861843289D
:10007000831606158312061943288316880121303A
:10008000831288009628831606148312061C5828AB
:10009000831686148312861C58288316061583122D
:1000A0000619582883168801223083128800962862
:1000B00083160614831206186D288316861483127D
:1000C000861C6D2883160615831206196D28831663
:1000D00088010A308312880096288316061483123A
:1000E00006188228831686148312861C822883169B
:1000F00006158312061D8228831688010C30831290
:1001000088009628831606148312061896288316EC
:100110008614831286189628831606158312061DE8
:100120009628831688011430831288008A110A12D7
:10013000BF29831606148312061CAE288316861464
:1001400083128618AE28831606158312061DAE2864
:10015000831688010A308312880016298316061434
:100160008312061CC3288316861483128618C3289C
:100170008316061583120619C328831688010C30CE
:10018000831288001629831606148312061CD828A9
:10019000831686148312861CD828831606158312AC
:1001A0000619D8288316880114308312880016296E
:1001B0008316061483120618ED28831686148312FC
:1001C000861CED288316061583120619ED28831662
:1001D00088011130831288001629831606148312B1
:1001E00006180229831686148312861C0229831698
:1001F00006158312061D02298316880121308312F9
:1002000088001629831606148312061816298316E9
:100210008614831286181629831606158312061D66
:100220001629831688012230831288008A110A1247
:10023000BF2903081F3983002210A214FF30A30036
:10024000831603170908C039890003131F129F1270
:100250000030031788008312870188018901831306
:10026000FF30831603138600003088008700831256
:10027000A30001308316850003170908C0398900DF
:1002800003131F129F1201300317880083120313F8
:100290001F179F1783169F1783121F140030F80033
:1002A0001F08C33978049F000030F8000638920018
:1002B000FF308316920083122311230883168700D0
:1002C000831207110C30970083169B019C010130AB
:1002D0009D0083129F149F186B2983161E0883129A
:1002E000A0001E08A1001030F700F70B75290000D0
:1002F0002108F9002008F800F90CF80CF90CF80CAA
:10030000F90C78089500F90C790C3039F7001708CA
:10031000CF3977049700831606168312061A9F2991
:100320001430A4000420831606168312061A9F298F
:10033000831606168312061E98290130A20683161C
:1003400086168312861AB3291430A400042083165B
:1003500086168312861AB329831686168312861E82
:10036000AC290230A2062218BA298316880183120A
:100370008801BF29A218BE291928BF2999286A29EE
:02038000630018
:04400E00C12CFF3F83
:00000001FF
;PIC16F887
;CRC=0AF7  CREATED="04-Feb-26 15:58"
